:060000000219FD02035885
:03000B0002008070
:0300130002036B7A
:03001B000200B62A
:03002B00020323AA
:03005B0002037A23
:0300730002034540
:10008000C0D075D01018B8CF0408208507B2858677
:100090008AD0D03253A4DFD285C2A98F8E7589AAA7
:1000A000C289C28B758A00D2A8D2AA43F74043E620
:1000B00010C228D0D032C2A8C28E855B8BC0D0754A
:1000C000D008C0E0C0F0C2CAA9CCAACDD2CAC3E948
:1000D000955CF9EA955D7049C3E9955E4043955E8C
:1000E000503FB8103C7800A95A7D00E2FEC39DC382
:1000F00099402E99EC33FC08E2FDC39EC399402140
:1001000099EC33FC08E2FEC39DC399401499EC338B
:10011000FC08E2FDC39EC399400799EC33FC0880BC
:1001200002806AE2FEC39DC399406299EB33FB08EB
:10013000E2FDC39EC399405599EB33FB08E2FEC331
:100140009DC399404899EB33FB08E2FDC39EC399D8
:10015000403B99EB33FB08E2FEC39DC399402E99C7
:10016000EB33FB08E2FDC39EC399402199EB33FBBF
:1001700008E2FEC39DC399401499EB33FB08E2FDEE
:10018000C39EC399400799EB33FB08801D0530E5FA
:100190003070021530C3E53094324009D225E4F5C1
:1001A0005FF560610D75310A610DE2FEC39DC39973
:1001B00040DB99EA33FA08E2FDC39EC39940CE9929
:1001C000EA33FA08E2FEC39DC39940C199EA33FAC3
:1001D00008E2FDC39EC39940B499EA33FA08EBC420
:1001E0006B6C6A302701F4540F70A2C3EBF4FA94DD
:1001F00060FBECF4540F9400FC501AEA7C007B0086
:1002000060137A00C3135008FAB55F0405608005D7
:100210008A5F75600030221EC3EB94D0F5F0EC9439
:1002200007C2264005ABF0FCD226202102B226C32D
:10023000EB33FBEC33FCEB54F04CC475F00584FA63
:10024000EC13FCEB132AFBEC3400FC30E3047BFFE3
:100250007C07201C27301124EC700C798187F0C3B7
:10026000EB95F05002ABF0E538601175F028A42B47
:10027000FBEC3400FC30E3047BFF7C07EB54F84CD0
:10028000C423F97007EB7004D2258005753200C2D3
:1002900025E53060021530C3E551FD95524002ADB1
:1002A00052C3ED995008ED75F008A4FBACF0C3EC17
:1002B00013F45403FAEB13F4F930291CEBF4540152
:1002C00024C0F8E623F630E00FE92401F97009EACA
:1002D0003400FA30E2021A19C3E99432FBEA9400BE
:1002E000FC5003E4FBFC894D8A4E8B4F8C507531DA
:1002F0000A302719302816758E017589A2D28543D8
:10030000A420780085678AC28DD2A9800F780075F5
:100310008A00D2A8D2AA43F74043E610D0F0D0E03A
:10032000D0D032C0E0C2CF053C302403102313D21A
:1003300023E531600215313025080532E5327002BF
:100340001532D0E032C2AF53E67F53917F7592FAF7
:100350007593FFC218D2AF32C0E0E58A855B8BC0CF
:10036000D075D008F208D0D0D0E032C2AAD28EC266
:10037000CA85CC5C85CD5DD2CA32C2AFC0E0E5F99A
:10038000E5FA301F0520E223800330E21E20E11B46
:10039000854DE9854EEA854FFB8550FCD21FE54E21
:1003A00020E102C21F53F7BF53E6EF53F7DFD0E05F
:1003B000D2AF327901801479058010790A800C79E6
:1003C00064800879C8800479FA80007817E4D5E061
:1003D000FDD8FAD9F6227A427B3580247A2D7B4DDE
:1003E000801E7A267B5C80187A197B8C80127A14A6
:1003F0007BAF800C7A427B1E80067A2D7B2C80009E
:10040000E5577001227902E4C292D5E0FDD293D57E
:10041000E0FDC293D5E0FDD292D5E0FDE920E002F7
:10042000D29130E002D295E557D5E0FDE920E00217
:10043000C29130E002C2957496D5E0FDD9C9EA7840
:10044000C8D8FED5E0F9DBBDC2922278A5E6F95402
:10045000037000E9540C7000E954307000E954C096
:10046000700022C291C293C295C290C292C294758A
:10047000D5FF22201E2E78FF201026E53B6022E5C6
:1004800043601E74FF301102747F8543F084853B06
:10049000F0A4F8C5F0600278FFC3E895535002A8B5
:1004A00053885222C3E54294A0E5439400E552509C
:1004B00003148001046002F552220554C3E55494EC
:1004C00008405130EDF4AABDABBE75540079A0E7E9
:1004D0006041EB7006E5556018800CC3EA955560E5
:1004E0000EE5555005600A1480070460FA8002E5A5
:1004F00055F555C39556401B7551C0C39404401320
:10050000755180C39404400B755140C3940440035B
:1005100075510022E5512410500274FFF5512275E7
:1005200042007543F022C2AFC2CAA8CCA9CDAA3CF2
:1005300030CF010AD2CAD2AFC3EA13FAE913F9E8FD
:1005400013F8AB3DAC3E883D893EC3E89BF8E99C7F
:10055000201008547FF9301E42C13DAD3F8A3FF95B
:10056000EA9D547FFA600678FF79FF8013AE40AFB2
:10057000418B408C41A83DA93EC3E89EF8E99FF914
:10058000C3E54313FBE54213FAE82AF542E93BF5DC
:100590004350067542FF7543FF804DAA42AB43AC02
:1005A00042AD437E047F02C3EB9404400D1E1FC383
:1005B000EB940840052011021E1FC3ED13FDEC1340
:1005C000FCDEF7C3EA9CFAEB9DFBEF6009C3E9137D
:1005D000F9E813F8DFF7EA28FAEB39FB8A428B4394
:1005E00050067BFF8B428B43C3EB94025002D21E1A
:1005F0003010047F03801C7892E6FFC3E5399482B3
:1006000040110FC3E53994A040010FC3EF94064099
:10061000027F057E02E543C4540FF9E543C454F05C
:10062000F8E542C4540F28F8C3E89EFAE99400FBA9
:1006300040057050EA704D7A017B008047AA42ABBA
:1006400043EBC4FEEAC4540F4EFCC3EA9CFAEB949D
:1006500000FBC3E813C313F8EA28FAEB3400FB8A63
:10066000428B43C394024002C21E7802EBC4FE7B5D
:1006700000EAC4540F4EFAC398FA400270027A019D
:100680007892E6FF202806301808120AA8301802CF
:1006900080FB854992854A93D21843E680C3E49A49
:1006A000F8E49BF9C3E833F8E933F9201E67E8FA68
:1006B000E9FBD3E913FDE813FC8849894AC3EF94A9
:1006C00003602FEF20E00CE82CF8E93DF9ECFAED9F
:1006D000FB800BE8D338F8E939F97AFF7BFFC3EFE9
:1006E0009403400E8A4B8B4C884589468C478D4835
:1006F0008056884B894C8A458B468C478D483010F4
:1007000047754BF0754CFF7547F07548FF7549F01C
:10071000754AFF8033E8FAD313FC8849C3EF94038A
:100720006020EF20E007E82CF8ECFA8007E82824A6
:1007300001F87AFFC3EF940340088A4B88458C4741
:100740008006884B8A458C47202806301808120AF4
:10075000A830180280FB753602D21843E6803011AB
:100760002DA842A943C3E913F9E813F8301004E9AE
:100770002440F9C2AF53E67F759100C3E498F59425
:10078000E499F595759104D21843E680D2AF2275AD
:10079000F000301D0E75F040800975F040301D03EB
:1007A00075F000D2197544007A027B02201E1D30BC
:1007B0001102C2193010067A367B36800F7B28E58D
:1007C00043700104FAC3942840027A28201810E5E7
:1007D00044600C301003D53604D21A8065F15905F7
:1007E00044E59B5440B5F00DE53560BC2019B9DAFD
:1007F000DBC21A804D20100B2019110AC3EA9B405E
:10080000CB80A50AC3EA9B40011A80C0C21953E6F7
:100810007F759100301E107594007595F0759104E8
:10082000D21843E6808081E5437EFFC3334009C38D
:10083000334005C3334001FEC3E49E759400F59533
:1008400080DBC2AF53E67F85459285469375910064
:10085000854B94854C95759104D21843E680D2AFB0
:10086000201013301A1220110F201D0C2019091509
:100870008115810211FC053522E53975F007A43098
:10088000190105F0A2F013A2F113A2F213F539C376
:1008900094785003753978C3E539953A4009C29187
:1008A000C293C29575D5FF20280530180751A8308E
:1008B000180280FB854792854893D21843E6802230
:1008C00020200FC2AFC292D29075D5CFD2AF759F04
:1008D0000322C2AFC292D29475D5FCD2AF759F03EA
:1008E0002220200FC2AFC29575D5F3D290D2AF753A
:1008F0009F1322C2AFC29175D5F3D294D2AF759F28
:10090000232220200FC2AFC290D29475D5F3D2AF6C
:10091000759F2322C2AFC294D29075D5F3D2AF7522
:100920009F132220200FC2AFC29375D5FCD294D260
:10093000AF759F0322C2AFC29375D5CFD290D2AF0D
:10094000759F032220200FC2AFC294D29275D5FCAE
:10095000D2AF759F1322C2AFC290D29275D5CFD2BB
:10096000AF759F232220200FC2AFC29175D5CFD281
:1009700092D2AF759F2322C2AFC29575D5FCD29299
:10098000D2AF759F13227432A28540032085F750A1
:10099000033085F2D5E0F3922722E55F6078F8C353
:1009A0009406500751751203C38065B80717C3E555
:1009B0006094064061740130220274037888F6C2A4
:1009C00020C221804BB80817C3E5609406404774E5
:1009D0000230220274047888F6D220D2218031B805
:1009E0000917C3E5609406402D302224C37888E6B9
:1009F00014C2E104F6C2228017B80A1BC3E5609452
:100A000006401320220A7888E614D2E104F6D222A6
:100A1000755F0075600022B8141CC3E56094064041
:100A2000F5C2AF901A0B740093D2AF7888F613B367
:100A30009220922180DAB81520C3E560940640D652
:100A4000C2AF901A0B740093D2AF14B2E00478884E
:100A5000F613B39220922180B7B80CB4C3E560942A
:100A60000640B37558A57559F191FE755800755932
:100A700000D2AF809BC2AF12046379998757B80147
:100A8000051203D6801BB802051203DC8013B803DD
:100A9000051203E2800BB804051203E88003120379
:100AA000EE79988757D2AF22C0D075D010BC0029FC
:100AB000C2AF854226854327D2AFE526A23813F977
:100AC000A2391329F526E52703C2E7F903C2E7395E
:100AD000F5270C201803D0D022BC0115E527705251
:100AE000E526700675270F7526FF0C201803D0D059
:100AF00022BC0215E526C465266527F478D0A661D8
:100B000071AF0C201803D0D022BC030BE52671AFC7
:100B10000C201803D0D022BC040CE526C471AF0C05
:100B2000201803D0D022E52771AF087C00D0D0D2A6
:100B3000282220E71620E61D20E52720E43420E3C4
:100B40004120E25020E15CE52641EAA23733F52658
:100B500075270F41EAA23733A23633F52675270DE4
:100B600041EAA23733A23633A23533F52675270B77
:100B700041EAE52654F0C23C4527C4F5267527090D
:100B800041EAE526A23813A23913A23A13F52675D5
:100B9000270741EAE526A23813A23913F52675275F
:100BA0000541EAE526A23813F52675270341EA54E4
:100BB0000F23900BB67361D661E061ED61FE810891
:100BC0008115811F813381408154815B816C8176E5
:100BD000818D819781AB08A66308A66108A6612272
:100BE00008A66108A66208A66108A6612286F0E54B
:100BF00062B5F002E563F608A66308A6612208A6BE
:100C00006108A66308A6612208A66208A66108A674
:100C10006108A6612208A66208A66208A66122866B
:100C2000F0E562B5F002E563F608A66108A6620881
:100C3000A6612208A66108A66108A66208A661222C
:100C400086F0E562B5F002E563F608A66208A661E3
:100C500008A6612208A66308A6622286F0E562B5AE
:100C6000F002E563F608A66208A6622208A66108FB
:100C7000A66208A6622286F0E562B5F002E563F698
:100C800008A66108A66108A66108A6612208A662F6
:100C900008A66108A6622286F0E562B5F002E56367
:100CA000F608A66108A66108A6622208A66108A641
:100CB0006108A66108A66222901A0D7820B137E576
:100CC00020B4550AA3B137E520B4AA0280127558A2
:100CD000A57559F1B19C91FE755800755900801D9C
:100CE000901A0378807B0AB137A308DBFA901A0FB9
:100CF000788C7B1AB137A308DBFA901A2922C2AF8D
:100D0000B17AB157901A007400B13CA3740BB13C96
:100D1000A374C9B13C901A0378807B0AB13BA30845
:100D2000DBFA901A0F788C7B1AB13BA308DBFAB17F
:100D30008DB16B901A2922E493F622E6438F01537A
:100D40008FFDFFC3E583941C400122EF8558B785D2
:100D500059B7F0538FFE22438F02438F018558B756
:100D60008559B7901A0DF0538FFC22901A0D7455C7
:100D7000B13C901A0E74AAB13C227A3079D0782016
:100D8000901A40B137E520F709A3DAF7227A3079D3
:100D9000D0901A40E7B13C09A3DAF922788076FFB7
:100DA0000876330876010876010876190876FF0878
:100DB00076090876FF0876010876FF08080876FFAE
:100DC0000876FF0876FF0876FF0876FF0876FF08AA
:100DD00076040876FF0876FF0876FF0876FF087627
:100DE000FF0876280876500876040876FF08760211
:100DF0000876FF0876FF0876FF0876070876FF0872
:100E000076FF0876FF087600087600227888E614D8
:100E1000A2E19222A2E0922092217884745096500E
:100E20000276507886740D965002760D863B789C3B
:100E3000E6753AFFB40203753AA0B40303753A822B
:100E400078A0E6F8600674282409D8FCF55678984E
:100E500086577883E624FF922978C0760008765575
:100E6000227558007559007597DE7597AD7581B07C
:100E700043FF8075EF0675A9001204637580FF7546
:100E8000F1F075A4007580FF75D4FF75900075F2C0
:100E90003F75A53F75900075D5FF75A60175F301E7
:100EA00075CCFF75E34075E202120463E4F8F6D8EE
:100EB000FDB19C91B878988657C2AF1203BF788273
:100EC000E670111203FA1203C71203C71203C71206
:100ED00003C780211203D61203B71203DC1203B733
:100EE0001203D61203B71203E21203C31203DC1279
:100EF00003E81203E812044B1203C71203C7C2AF80
:100F000075580075590078FA79FA308507D9FBD8F9
:100F1000F7021C00D10C12046375A91375A7107594
:100F2000C10075A700C224302A141203DC1203DCAE
:100F30001203DC1203DC1203DC1203C3C22A75881D
:100F400051758E017589AA758C00758D0075C80460
:100F500075910475D84075D90875F782759E077527
:100F6000960175DB4275DA42759B80759D0075D1DF
:100F70000C75BCB975BB1075E88075B2011203B36E
:100F8000753800755F00756000C228318675E4D53C
:100F900030270375E45D75A82D75E69075B803D20A
:100FA000AF758E0C755B80755A10755E507561F764
:100FB0007562E77563D67567E17564EB7565CA752B
:100FC00066A975300A1203BFE530755F00756000D1
:100FD0006031755BC0755A08755E287561FF756272
:100FE000F77563EF7567E17564FB7565EB7566DA38
:100FF00075300A1203BFE530755F0075600060034D
:10100000020EFEC0D075D010AF8ED0D0D22AC2AFA3
:101010001203F4D2AF1203BF3025FAC2AF1203FAA3
:10102000D2AFE4F542F543F533F5340533E533F457
:1010300070290534789AE6781414601278281460C0
:101040000D786414600878C8146003753400C3E533
:101050003498400715347804120A75202805D218F0
:10106000120AA81203BBE5317003020EFE302509F7
:10107000E55F60B712099A80F41203BF755F0075CF
:101080006000E5317003020EFEC2AF120463D2AFFE
:10109000E4F522F523F5391203B375E89030EDFD40
:1010A00085BD55E5BE70037555007554081204BA28
:1010B000755408C2AF79848753855351855352D2F2
:1010C000AF75A71075C13075A70075A903D224C3E9
:1010D000E55B33F55BC3E55E33F55EC3E55A33F597
:1010E0005AE561C564F561E562C565F562E563C50C
:1010F00066F56375673C302204A2269220D210D296
:101100001175350012094412096512051F120526D2
:1011100012051F12052612051F12079A12087912CE
:1011200008C012052612078F1204731208791208DC
:10113000E112052612079A120879120902120526F1
:1011400012078F12087912092312052612079A1224
:10115000087912094412052675E89012078F1208C3
:10116000791209651204BA12052630101A855351F6
:10117000C3E5359418500530259F4101C2107537DD
:101180000C855351855352301118201D15E5371425
:101190007006C211D21C8081F53720220320256100
:1011A0002119753800D21B20220F78FA79A4E76044
:1011B000027803C3E532985048E531604430221785
:1011C000202005202607800F302602800A201D07D8
:1011D000D21D855351214078F0301D05855351783B
:1011E00020C3E5439850022119301D15C21DA226C7
:1011F0009220D2117537128553512119201B0205F7
:1012000038C2AF12046375220075230075A91375E7
:10121000A71075C10075A700C224D3E55B13F55B69
:10122000C3E55E13F55EC3E55A13F55AE561C5647F
:10123000F561E562C565F562E563C566F5637567E9
:10124000E1D2AF1203BF12046378A4E66006D29025
:10125000D292D294302503753800C3E538940450F7
:06126000020122020EFE55
:1019FD00020E61000BC9FF33010119FF09FF01FF41
:101A0D0055AAFFFFFFFFFFFF04FFFFFFFFFF285059
:0D1A1D0004FF02FFFFFF07FFFFFF0000FFB7
:101A400023535F485F353023202020202020202092
:101A500023424C48454C492445464D3842323123B7
:101A6000426C75656A6179202842455441292020DD
:101C0000C2AFC2D37597DE7597AD7581C075A90057
:101C100043FF80752438752503B1DB7529A5752A26
:101C2000F143F12053A4DFD28575D4FF75E3407DE5
:101C3000FA780379E67C10752200752300901DE880
:101C40007B0675249875250130850281482085081A
:101C5000D8FBD9F9DCF781BA308508D8FBD9F9DC93
:101C6000F781BAB19BE493A3C39A6004DDC381BA40
:101C7000DBDBB18D600281317B08E493FAA3B16EA6
:101C8000DBF87A30B16E752200752300B18DEAFC65
:101C9000EBFDC3ED94FE400EB18D8A278B28ED300D
:101CA000E0048A828B83B18D7AC270D8C3ED94FE32
:101CB000601950CEBD0029EC600F7520007521FF22
:101CC000752900752A000200008100A827A92808AC
:101CD00009D804D90281DDB191EAF281D10D81A642
:101CE000C3ED94035051EDA2E092007AC5C3E582A2
:101CF0009400E583941C508C200010438F02438F86
:101D0000018529B7852AB7F0300027A827A9280818
:101D100009438F01538FFDD804D902A132C3E58353
:101D2000941C4003A3A117E28529B7852AB7F0A325
:101D3000A117538FFC81827AC1BD030CE493A3FAEF
:101D4000B152DCF8B14A81828184AA22AB23B16E00
:101D5000EBFAEA6222752608C3E52313F523E52290
:101D600013F52250066323A0632201D526EAB1DBD6
:101D7000B1DB75260AEAF4200102D285300102C2E5
:101D800085B1DBC3134002C201D526EB22B191EA33
:101D9000FB208502A191308502A196752608AE240C
:101DA000AF25C3EF13FFEE13FEB1DFB1DBC3EA13C0
:101DB0003085024480FA30E703632201C3E5231330
:101DC000F523E52213F52250066323A0632201D5F3
:101DD00026D9E52265236523F52222AE24AF250E00
:101DE0000FDEFEDFFCD20122424C48656C693437BD
:061DF0003164E8B20601B7
:00000001FF
