:060000000219FD02035984
:03000B0002008070
:0300130002036C79
:03001B000200B030
:03002B00020322AB
:03005B0002037B22
:030073000203463F
:10008000C0D075D01018B8CF0408208507B2858677
:100090008AD0D03253A4DFD285C2A98F8E7589AAA7
:1000A000C289C28B758A00D2A8D2AAC228D0D03207
:1000B000C2A8C28E85588BC0D075D008C0E0C0F0F1
:1000C000C2CAA9CCAACDD2CAC3E99559F9EA955AB0
:1000D0007049C3E9955B4043955B503FB8103C784D
:1000E00000A9577D00E2FEC39DC399402E99EC33D1
:1000F000FC08E2FDC39EC399402199EC33FC08E261
:10010000FEC39DC399401499EC33FC08E2FDC39EE5
:10011000C399400799EC33FC088002806AE2FEC371
:100120009DC399406299EB33FB08E2FDC39EC399DE
:10013000405599EB33FB08E2FEC39DC399404899B3
:10014000EB33FB08E2FDC39EC399403B99EB33FBC5
:1001500008E2FEC39DC399402E99EB33FB08E2FDF4
:10016000C39EC399402199EB33FB08E2FEC39DC3B4
:1001700099401499EB33FB08E2FDC39EC3994007F5
:1001800099EB33FB08801E0530E53070021530C353
:10019000E5309432400AD225755C00755D0061122D
:1001A00075310A6112E2FEC39DC39940DA99EA33C0
:1001B000FA08E2FDC39EC39940CD99EA33FA08E2FA
:1001C000FEC39DC39940C099EA33FA08E2FDC39E7D
:1001D000C39940B399EA33FA08EBC46B6C6A3027D1
:1001E00001F4540F70A1C3EBF4FA9460FBECF454E7
:1001F0000F9400FC5018EA7C007B00600CC3135085
:1002000007B55C05055D8006E4F55C755D00302290
:100210001BC3EB94D0F5F0EC94074003ABF0FC303B
:100220002101B39226C3EB33FBEC33FCEB54F04CCF
:10023000C475F00584FAEC13FCEB132AFBEC3400D4
:10024000FC30E3047BFF7C07201C27301124EC707A
:100250000C798187F0C3EB95F05002ABF0E5376085
:100260001175F028A42BFBEC3400FC30E3047BFF79
:100270007C07EB54F84CC423F97007EB7004D225CB
:100280008005753200C225E53060021530C3E54CAB
:10029000FD954D4002AD4DC3ED995008ED75F00848
:1002A000A4FBACF0C3EC13F45403FAEB13F4F930F1
:1002B000291CEBF4540124C0F8E623F630E00FE9E2
:1002C0002401F97009EA3400FA30E2021A19C3E98C
:1002D0009432FBEA9400FC5005E4FBFC800DC3EB78
:1002E000954FEC95504004AB4FAC5089E98AEA8BAE
:1002F000FB8CFC75310A302719302816758E017574
:1003000089A2D28543A420780085648AC28DD2A9AF
:1003100080097800758A00D2A8D2AAD0F0D0E0D0A7
:10032000D032C0E0C2CF053B302403102315D223C6
:10033000E5316005153130250AD2250532E53270E8
:10034000021532D0E032C2AF53E67F53917F7592EF
:10035000FA7593FFC218D2AF32C0E0E58A85588B98
:10036000C0D075D008F208D0D0D0E032C2AAD28E68
:10037000C2CA85CC5985CD5AD2CA32327A007901A7
:10038000801E7A00790580187A00790A80127A0036
:100390007964800C7A0079C880067A0079FA800046
:1003A000090A8009781874FFD5E0FDD8F9D9F5DA83
:1003B000F3227A427B3580247A2D7B4D801E7A266B
:1003C0007B5C80187A197B8C80127A147BAF800C4E
:1003D0007A427B1E80067A2D7B2C8000E5547001CA
:1003E000227902E4C292D5E0FDD293D5E0FDC2931A
:1003F000D5E0FDD292D5E0FDE920E002D29130E0D7
:1004000002D295E554D5E0FDE920E002C29130E04A
:1004100002C2957496D5E0FDD9C9EA78C8D8FED550
:10042000E0F9DBBDC2922271B271B871BE2271D601
:1004300071B22271BE71B871B22279998754B80134
:100440000471B28017B8020471B88010B803047147
:10045000BE8009B8040471C4800271CA79988754B7
:1004600022901A70E493F4601D7C3E901A74E49319
:10047000A3FB6012E493FA600471DC8006EBF97A66
:100480000071A0A3DCE8901AF02278A5E6F95403E5
:100490007000E9540C7000E954307000E954C070E9
:1004A0000022C291C293C295C290C292C29475D5E5
:1004B000FF22201E2E78FF201026E53A6022E5421A
:1004C000601E74FF301102747F8542F084853AF01B
:1004D000A4F8C5F0600278FFC3E8954E5002A84E1C
:1004E000884D22C3E54194A0E5429400E54D5003B8
:1004F000148001046002F54D220551C3E5519408B2
:10050000405130EDF4AABDABBE75510079A0E76053
:1005100041EB7006E5526018800CC3EA9552600EFC
:10052000E5525005600A1480070460FA8002E55223
:10053000F552C39553401B754CC0C39404401375CA
:100540004C80C39404400B754C40C3940440037525
:100550004C0022E54C2410500274FFF54C227541EA
:10056000007542F022C2AFC2CAA8CCA9CDAA3B30C6
:10057000CF010AD2CAD2AFC3EA13FAE913F9E813DA
:10058000F8201014C3E8953C883CF8E9953D893D76
:10059000547FF9301E36C17FAB3CAC3DAD3E883C4C
:1005A000893D8A3EC3E89BE99CEA9D547F600875BB
:1005B00041FF7542FFC14EAE3FAF408B3F8C40C301
:1005C000E89EF8E99FF9AA41AB428011AA41AB42EB
:1005D000C3EB9404404894044013201126C3EB134A
:1005E000FDEA13FCC3ED13FDEC13FC804AEBC423BE
:1005F000FCEAC423541F4CFC7D00C3E913F9E81343
:10060000F88034EBC423FC541FFDEC54E0FCEAC436
:1006100023541F4CFCC3E913F9E813F88019EBC409
:10062000FCEAC4540F4CFC7D00C3E913F9E813F84D
:10063000C3E913F9E813F8C3EA9CFAEB9DFBEA2837
:10064000F541EB39F54250067541FF7542FFC3E5B0
:100650004294025002D21EE542C4FA540FFBEA54FF
:10066000F0FAE541C4540F4AFAC3EA9402FAEB9453
:1006700000FB40057048EA70457A017B00803FAA84
:1006800041AB42EBC4FCEAC4540F4CFCC3EA9CFAF5
:10069000EB9400FBE80303543F2AFAEB3400FB8A97
:1006A000418B42C394024002C21EEBC4FE7B00EAAF
:1006B000C4540F4EC39402FA400270027A012028FB
:1006C00006301808120A6D30180280FB85489285A2
:1006D0004993D21843E6807892E6FFC3E49AF8E49F
:1006E0009BF9C3E833F8E933F9201E7F3010047F0B
:1006F000038015C3E5389482400E0F941E40010F0D
:10070000C3EF940640027F05E8FAE9FBD3E913FD45
:10071000E813FC8C468D4788488949C3EF940360F1
:100720002BEF20E00CE82CF8E93DF9ECFAEDFB802A
:100730000BE8D338F8E939F97AFF7BFFC3EF94036C
:10074000400A8A4A8B4B884489458050884A894BA5
:100750008A448B45301045754AF0754BFF7546F05D
:100760007547FF7548F07549FF8031E8FAD313FCEF
:100770008C468848C3EF9403601EEF20E007E82C06
:10078000F8ECFA8007E8282401F87AFFC3EF940315
:1007900040068A4A88448004884A8A4420280630D1
:1007A0001808120A6D30180280FB753502D2184302
:1007B000E68030112DA841A942C3E913F9E813F8E6
:1007C000301004E92440F9C2AF53E67F759100C3AD
:1007D000E498F594E499F595759104D21843E68070
:1007E000D2AF2275F000301D0E75F040800975F013
:1007F00040301D0375F000D2197543007A027B0268
:10080000201E1D301102C2193010067A367B368048
:100810000F7B28E542700104FAC3942840027A282D
:10082000201811E543600D301003D53504D21A802D
:10083000661207AD0543E59B5440B5F00DE5346005
:10084000BB2019B8DADAC21A804D20100B2019111A
:100850000AC3EA9B40CA80A40AC3EA9B40011A80EB
:10086000BFC21953E67F759100301E107594007554
:1008700095F0759104D21843E6808080E5427EFFB2
:10088000C3334009C3334005C3334001FEC3E49E74
:10089000759400F59580DBC2AF53E67F8544928561
:1008A0004593759100854A94854B95759104D218AE
:1008B00043E680D2AF201013301A1220110F201DF2
:1008C0000C201909158115810211B0053422E53873
:1008D00075F007A430190105F0A2F013A2F113A2DC
:1008E000F213F538C394785003753878C3E538951A
:1008F000394009C291C293C29575D5FF20280530B1
:100900001807516D30180280FB854692854793D2B7
:100910001843E6802220120FC2AFC292D29075D542
:10092000CFD2AF759F0322C2AFC292D29475D5FCCD
:10093000D2AF759F032220120FC2AFC29575D5F3B7
:10094000D290D2AF759F1322C2AFC29175D5F3D2A8
:1009500094D2AF759F232220120FC2AFC290D294BF
:1009600075D5F3D2AF759F2322C2AFC294D29075D2
:10097000D5F3D2AF759F132220120FC2AFC2937569
:10098000D5FCD294D2AF759F0322C2AFC29375D566
:10099000CFD290D2AF759F032220120FC2AFC29464
:1009A000D29275D5FCD2AF759F1322C2AFC290D23E
:1009B0009275D5CFD2AF759F232220120FC2AFC23E
:1009C0009175D5CFD292D2AF759F2322C2AFC29577
:1009D00075D5FCD292D2AF759F13227432A2854096
:1009E000032085F750033085F2D5E0F3922722E506
:1009F0005C6079F8C39406500FC2AF1204A21204CF
:100A00003A120394D2AF805EC3E55D9406405DB8B0
:100A10000704C2218050B80804D2218049B80904D3
:100A2000C2228042B80A04D222803BB8140A7988D4
:100A3000E714A2E09221802EB8150B7988E714A262
:100A4000E0B392218020B80C1DE4A22192E0A22202
:100A500092E1047988F77555A57556F191C37555DE
:100A600000755600D2AF755C00755D0022C0D07570
:100A7000D010BE0029C2AF854126854227D2AFE5FE
:100A800026A23813F9A2391329F526E52703C2E770
:100A9000F903C2E739F5270E201803D0D022BE0192
:100AA00015E5277052E526700675270F7526FF0E8F
:100AB000201803D0D022BE0215E526C4652665277E
:100AC000F478D0A65E71740E201803D0D022BE0335
:100AD0000BE52671740E201803D0D022BE040CE55D
:100AE00026C471740E201803D0D022E52771740833
:100AF0007E00D0D0D2282220E71620E61D20E52750
:100B000020E43420E34120E25020E15CE52641AFBF
:100B1000A23733F52675270F41AFA23733A23633FC
:100B2000F52675270D41AFA23733A23633A23533F0
:100B3000F52675270B41AFE52654F0C23C4527C486
:100B4000F52675270941AFE526A23813A23913A26D
:100B50003A13F52675270741AFE526A23813A239C7
:100B600013F52675270541AFE526A23813F526753E
:100B7000270341AF540F23900B7B73619B61A561E9
:100B8000B261C361CD61DA61E461F88105811981E7
:100B9000208131813B8152815C817008A66008A66A
:100BA0005E08A65E2208A65E08A65F08A65E08A6E6
:100BB0005E2286F0E55FB5F002E560F608A6600803
:100BC000A65E2208A65E08A66008A65E2208A65FAA
:100BD00008A65E08A65E08A65E2208A65F08A65FB5
:100BE00008A65E2286F0E55FB5F002E560F608A68D
:100BF0005E08A65F08A65E2208A65E08A65E08A696
:100C00005F08A65E2286F0E55FB5F002E560F608B3
:100C1000A65F08A65E08A65E2208A66008A65F2258
:100C200086F0E55FB5F002E560F608A65F08A65F0E
:100C30002208A65E08A65F08A65F2286F0E55FB5DB
:100C4000F002E560F608A65E08A65E08A65E08A6A5
:100C50005E2208A65F08A65E08A65F2286F0E55F12
:100C6000B5F002E560F608A65E08A65E08A65F225B
:100C700008A65E08A65E08A65E08A65F22901A0D6A
:100C80007820B100E520B4550AA3B100E520B4AA4C
:100C90000280127555A57556F1B18791C37555003F
:100CA000755600801D901A0378807B0AB100A30856
:100CB000DBFA901A0F788C7B1AB100A308DBFA904C
:100CC0001A2922C2AFB143B165B120901A00740055
:100CD000B105A37410B105A374CCB105901A0378C3
:100CE000807B0AB104A308DBFA901A0F788C7B1A78
:100CF000B104A308DBFAB156B178B134901A2922B5
:100D0000E493F622E6438F01538FFDFFC3E58394FE
:100D10001C400122EF8555B78556B7F0538FFE2250
:100D2000438F02438F018555B78556B7901A0DF052
:100D3000538FFC22901A0D7455B105901A0E74AAA7
:100D4000B105227A3079D07820901A40B100E520A0
:100D5000F709A3DAF7227A3079D0901A40E7B10583
:100D600009A3DAF9227A8C79007820901A70B10000
:100D7000E520F309A3DAF7227A8C7900901A70E360
:100D8000B10509A3DAF922788076FF087633087670
:100D9000010876010876190876FF087609087618A2
:100DA0000876010876FF08080876FF0876FF0876BF
:100DB000FF0876FF0876FF0876FF0876040876FFBE
:100DC0000876FF0876FF0876FF0876FF0876280881
:100DD00076500876040876FF0876020876FF0876D3
:100DE000FF0876FF0876070876FF0876FF0876FF8B
:100DF000087600087600227888E614A2E19222A202
:100E0000E092217884745096500276507886740D62
:100E1000965002760D863A789CE67539FFB4020347
:100E20007539A0B4030375398278A0E6F8600674BA
:100E3000282409D8FCF55378988654788DE6232326
:100E4000F95403F550E954FCF54FB6FF03754FFF15
:100E50007883E624FF922978C076000876552275BB
:100E600055007556007597DE7597AD7581B043FFD7
:100E70008075EF0675A9001204A27580FF75F1F068
:100E800075A4007580FF75D4FF75900075F23F75ED
:100E9000A53F75900075D5FF75A60175A72075F360
:100EA0000175CC0175A70075E34075E2021204A23A
:100EB000E4F8F6D8FDB187917DB1F7C2AF12038E89
:100EC00012046112048A12038EC2AF755500755662
:100ED000001204A275A91375A71075C10075A700AB
:100EE000C224780979007A0030850CDAFBD9F9D868
:100EF000F712042E021C00302A0E12042712039A45
:100F000012039A12039AC22A758851758E01758947
:100F1000AA758C00758D0075C80475910475D8404C
:100F200075D90875F782759E0775960175DB427550
:100F3000DA42759B80759D0075D10C75BCB975BB87
:100F40001075E88075B20112037C31DB75E4D53091
:100F5000270375E45DC22875A82D75E68075B80372
:100F6000D2AF758E0C755880755710755B50755ED5
:100F7000F7755FE77560D67564E17561EB7562CAF8
:100F80007563A975300A12038EE530602B7558C061
:100F9000755708755B28755EFF755FF77560EF75AF
:100FA00064E17561FB7562EB7563DA75300A1203F3
:100FB0008EE5306003020EC9C0D075D010AF8ED060
:100FC000D0D22A753700C2AF1203D0D2AFC3E532F8
:100FD000940A40F9C2AF1203D6D2AFE4F541F5420C
:100FE000F55CF55DF533F53BC3E53B945E40337549
:100FF0003B000533789AE678141460127828146060
:101000000D786414600878C8146003753300C3E574
:101010003398400E15337804C2AF1204A212043A7A
:10102000D2AF202803120A6D30250CE5317003027F
:101030000EC91209EF80B112038E2025ABC2AF1288
:1010400004A2D2AFE4F522F523F53812037C75E84B
:101050009030EDFD85BD52E5BE70037552007551AF
:10106000081204F9755108C2AF7984874E854E4C39
:10107000854E4D75A71075C13075A70075A903D2AF
:1010800024C3E55833F558C3E55B33F55BC3E55737
:1010900033F557E55EC561F55EE55FC562F55FE571
:1010A00060C563F56075643CD2AFA2219212302214
:1010B00004A2269212D210D21175340075360C1289
:1010C00009991209BA12055E12056512055E12052C
:1010D0006512055E1207EE1208CE1209151205659B
:1010E0001207E31204B21208CE1209361205651275
:1010F00007EE1208CE1209571205651207E312080F
:10110000CE1209781205651207EE1208CE1209995F
:1011100012056575E8901207E31208CE1209BA129B
:1011200004F9120565301132301017854E4CC3E5B5
:10113000349418500530259C807BC210854E4C8518
:101140004E4D201D15E53614600AF53630258520F4
:1011500022828061C211D21C01D4753700D21B30AB
:10116000251320220C79A4E76007C3E532940350CD
:1011700044E5316040202209C3E54294F050360135
:10118000D4201D1220120520260580EC2026E9D24D
:101190001D854E4C01FB854E4CC3E5429420400E0C
:1011A000C21DA2269212D211753612854E4C01D460
:1011B000201B020537C2AF1204A27522007523005E
:1011C00075A91375A71075C10075A700C224D3E5D2
:1011D0005813F558C3E55B13F55BC3E55713F55793
:1011E000E55EC561F55EE55FC562F55FE560C56317
:1011F000F5607564E1D2AF202517C3E5379404503C
:101200000612038E02103DC2AF120433D2AF020F9A
:10121000B875370078A4E66006D290D292D29402D4
:021220000FDBE2
:1019FD00020E5F0010CCFF33010119FF091801FF22
:101A0D0055AAFFFFFFFFFFFF04FFFFFFFFFF285059
:0D1A1D0004FF02FFFFFF07FFFFFF0000FFB7
:101A400023535F485F353023202020202020202092
:101A500023424C48454C492445464D3842323123B7
:101A6000426C75656A61792020202020202020208A
:101A7000023A042034420D00452D0D0034420D0081
:101A80004E27D300452DD019341900000000000066
:101A90000000000000000000000000000000000046
:101AA0000000000000000000000000000000000036
:101AB0000000000000000000000000000000000026
:101AC0000000000000000000000000000000000016
:101AD0000000000000000000000000000000000006
:101AE00000000000000000000000000000000000F6
:011AF000FFF6
:101C0000C2AFC2D37597DE7597AD7581C075A90057
:101C100043FF80752438752503B1DB7529A5752A26
:101C2000F143F12053A4DFD28575D4FF75E3407DE5
:101C3000FA780379E67C10752200752300901DE880
:101C40007B0675249875250130850281482085081A
:101C5000D8FBD9F9DCF781BA308508D8FBD9F9DC93
:101C6000F781BAB19BE493A3C39A6004DDC381BA40
:101C7000DBDBB18D600281317B08E493FAA3B16EA6
:101C8000DBF87A30B16E752200752300B18DEAFC65
:101C9000EBFDC3ED94FE400EB18D8A278B28ED300D
:101CA000E0048A828B83B18D7AC270D8C3ED94FE32
:101CB000601950CEBD0029EC600F7520007521FF22
:101CC000752900752A000200008100A827A92808AC
:101CD00009D804D90281DDB191EAF281D10D81A642
:101CE000C3ED94035051EDA2E092007AC5C3E582A2
:101CF0009400E583941C508C200010438F02438F86
:101D0000018529B7852AB7F0300027A827A9280818
:101D100009438F01538FFDD804D902A132C3E58353
:101D2000941C4003A3A117E28529B7852AB7F0A325
:101D3000A117538FFC81827AC1BD030CE493A3FAEF
:101D4000B152DCF8B14A81828184AA22AB23B16E00
:101D5000EBFAEA6222752608C3E52313F523E52290
:101D600013F52250066323A0632201D526EAB1DBD6
:101D7000B1DB75260AEAF4200102D285300102C2E5
:101D800085B1DBC3134002C201D526EB22B191EA33
:101D9000FB208502A191308502A196752608AE240C
:101DA000AF25C3EF13FFEE13FEB1DFB1DBC3EA13C0
:101DB0003085024480FA30E703632201C3E5231330
:101DC000F523E52213F52250066323A0632201D5F3
:101DD00026D9E52265236523F52222AE24AF250E00
:101DE0000FDEFEDFFCD20122424C48656C693437BD
:061DF0003164E8B20601B7
:00000001FF
